:03000000020100FA
:09000B00438AFF758C4B057F321E
:10010000758AFF758C4B5388CF5389F1438901431E
:10011000A882438810757F0075300112015D75302B
:100120003812015D75300F12015D75300712015DE7
:100130007F00900171EF93F5311201670FBF27F235
:10014000E57FB40A09757F0075301812015D020160
:100150004090FF82E0F5E030E70280F52212015185
:1001600090FF80E530F02212015190FF81E531F0DF
:10017000224175746F72656D2070726F6772616D68
:1001800075206A6573743A204D696368616C204715
:0801900072616E69637A6B6114
:00000001FF
