:03000000020100FA
:09000B00438AFF758C4B057F321E
:10010000758AFF758C4B5388CF5389F1438901431E
:10011000A882757F00757A00757E01757D3F757CBC
:100120003F757B3F438810E57FB4140A757F000557
:100130007A12013CB29712014F020127E57A75F05D
:100140000A8485F07D75F00A8485F07CF57B22E5D4
:100150007E23F57EB40805757E01E57EB40105A811
:100160007D020171B40205A87C020171B40402A8E9
:100170007BD296E57E90FF30F0E890FF38F0C29693
:0B018000223F065B4F666D7D077F6F1E
:00000001FF
