:03000000020100FA
:09000B00438AFF758C4B0530326D
:10010000C296753000753500758AFF758C4B538823
:10011000CF5389F143890143A88243881075340184
:1001200090FF30E534F0E530B41447753000053504
:10013000850331850532850033B297E534B4010972
:1001400090FF38E531F0020165E534B4020990FF13
:1001500038E532F0020165E534B4040990FF38E572
:1001600033F0020165E53423F534E534B408037552
:0501700034010201262C
:00000001FF
