:03000000020100FA
:09000B00438A66758CFCD20232B6
:09002300109905C298D200323296
:1001000074FFF590F5B075816475878075985075AA
:100110008921758800758A66758CFC758BFD758DD7
:10012000FDC201C200C202C203751164D2BCD2A9D1
:10013000D2ACD2AFD28CD28E300005C20012016890
:10014000300105C201120171300205C20212015BC9
:10015000300305C2031201760201381511E5116062
:100160000122D20375116422E59924E0F513D2012E
:1001700022F513F599227582227583FFE054806081
:0901800004439020225390DF2279
:00000001FF
